:1000000012C021C020C01FC01EC01DC01CC01BC00C
:100010001AC044C018C017C016C015C014C013C001
:1000200012C011C010C011241FBECFE5D4E0DEBF46
:10003000CDBF20E0A0E6B0E001C01D92A237B2071C
:10004000E1F725D164C1DCCF87E087BB81E089BFC0
:1000500093E093BF80BF88BF78941092680010929D
:10006000690010926A0010926B0010926E0010925C
:100070006F00109270001092710083E690E09093F0
:100080006700809366008FEF90E090936500809307
:100090006400109261001092600008951F920F9208
:1000A0000FB60F9211242F933F934F935F936F934B
:1000B0007F938F939F93AF93BF93EF93FF93809121
:1000C00060009091610001969093610080936000C0
:1000D00080B38F7090E090936D0080936C009C01D2
:1000E000220F331F95958795820F931F909363007E
:1000F0008093620012BE8091680090916900A09187
:100100006A00B0916B00BC01CD016F5F7F4F8F4FD4
:100110009F4F2DE330E040E050E0BBD0362F272F3B
:10012000462F572F682F792F30936800209369004E
:1001300080936A0090936B004C3351056105710503
:10014000E1F480916E0090916F00A0917000B091E9
:100150007100BC01CD016F5F7F4F8F4F9F4F2DE32B
:1001600030E040E050E095D060936E0070936F00F7
:10017000809370009093710024C080916E009091E4
:100180006F00A0917000B0917100CC97A105B105EE
:10019000C1F4452B462B472BA1F48091660090912A
:1001A0006700833691056CF4019690936700809305
:1001B000660010926E0010926F0010927000109204
:1001C00071002091660030916700809162009091EB
:1001D00063002817390744F08091600086FF02C051
:1001E000C29A09C0C29807C08091600083FF02C014
:1001F000C29A01C0C2982091660030916700809138
:100200006C0090916D00281739077CF0AC01559572
:100210004795840F951F281739074CF0809162008D
:10022000909163002817390714F4C09A01C0C09850
:100230009D9B06C083E690E09093670080936600E4
:100240009C9B14C0109267001092660010926E0082
:1002500010926F001092700010927100109268005E
:100260001092690010926A0010926B00FF91EF915A
:10027000BF91AF919F918F917F916F915F914F91BE
:100280003F912F910F900FBE0F901F901895DCDEBD
:10029000FFCF052E97FB16F400940FD057FD05D025
:1002A00014D007FC02D046F408C050954095309514
:1002B00021953F4F4F4F5F4F0895909580957095D2
:1002C00061957F4F8F4F9F4F0895A1E21A2EAA1B71
:1002D000BB1BFD010DC0AA1FBB1FEE1FFF1FA217F6
:1002E000B307E407F50720F0A21BB30BE40BF50BF3
:1002F000661F771F881F991F1A9469F7609570957C
:10030000809590959B01AC01BD01CF010895F894B3
:02031000FFCF1D
:00000001FF
